{
  "contractName": "Faucet",
  "abi": [
    {
      "constant": true,
      "inputs": [],
      "name": "counter",
      "outputs": [
        {
          "name": "",
          "type": "int256"
        }
      ],
      "payable": false,
      "stateMutability": "view",
      "type": "function"
    },
    {
      "constant": true,
      "inputs": [],
      "name": "funds",
      "outputs": [
        {
          "name": "",
          "type": "uint256"
        }
      ],
      "payable": false,
      "stateMutability": "view",
      "type": "function"
    }
  ],
  "bytecode": "0x60806040526103e86000557ffffffffffffffffffffffffffffffffffffffffffffffffffffffffffffffff660015534801561003a57600080fd5b5060d0806100496000396000f3fe6080604052600436106043576000357c01000000000000000000000000000000000000000000000000000000009004806361bc221a146048578063c89f2ce4146070575b600080fd5b348015605357600080fd5b50605a6098565b6040518082815260200191505060405180910390f35b348015607b57600080fd5b506082609e565b6040518082815260200191505060405180910390f35b60015481565b6000548156fea165627a7a7230582072ff776a0e4bd661677b8b3f9d6f8e424b90eed73869613132396b4302f3ef990029",
  "source": "// SPDX-License-Identifier: MIT\r\npragma solidity >=0.4.22 <0.9.0;\r\ncontract Faucet {\r\n    // storage variables\r\n    uint public funds = 1000; // positive values only\r\n    int public counter = -10;\r\n}\r\n",
  "sourcePath": "C:\\Projects\\next_blockchain\\faucet\\contracts\\FaucetContract.sol",
  "compiler": {
    "name": "solc",
    "version": "0.5.1+commit.c8a2cb62.Emscripten.clang"
  },
  "schemaVersion": "3.4.16",
  "updatedAt": "2025-01-17T17:29:48.894Z",
  "networkType": "ethereum",
  "devdoc": {
    "methods": {}
  },
  "userdoc": {
    "methods": {}
  }
}